:060000000A128A1110280B
:10000800FE00030E83160313AD000A08AE007F0836
:10001800AF000A128A15EB2D0A128A1113288312CF
:100028000313EF0183160313B001B101B201B30149
:10003800B401B501B601B70183010A128A11EA2F8A
:10004800831203133D088039C2004208C7003D08E7
:10005800C2004207C3004308CD00BC1F342835281E
:1000680036284D144D0803193A283B284A284D0ACA
:10007800031D3F28402848280030BD000030BC0040
:100088000030BB000030BA00BC1752280030BD0059
:100098000030BC000030BB000030BA004108803995
:1000A800C2004208C7064108C2004207C30043080D
:1000B800CC00C01F6028612862284C144C08031922
:1000C8006628672876284C0A031D6B286C28742834
:1000D8000030C1000030C0000030BF000030BE005A
:1000E800C0177E280030C1000030C0000030BF00BB
:1000F8000030BE004C0803198228832888284D0840
:10010800031D8728882891280030BD000030BC00D6
:100118000030BB000030BA00842B3A08C200420805
:10012800F00040080A128A15BD240A128A117108C3
:1001380083120313D3007008D2005208C200C3010F
:10014800C401C5014508CB004408CA004308C900DA
:100158004208C8005308C200C301C401C5014508CC
:10016800D1004408D0004308CF004208CE003B0825
:10017800C2004208F0003F080A128A15BD240A127C
:100188008A11710883120313D3007008D200520831
:10019800C200C301C401C5014208C80743080311CE
:1001A8000318013E0319D928C90744080311031885
:1001B800013E0319E028CA07450803110318013E48
:1001C8000319E728CB075308C200C301C401C501BE
:1001D8004208CE07430803110318013E0319F52806
:1001E800CF07440803110318013E0319FC28D00760
:1001F800450803110318013E03190329D1073C08D8
:10020800C2004208F0003E080A128A15BD240A12EC
:100218008A11710883120313D3007008D2005208A0
:10022800C200C301C401C5014208C807430803113D
:100238000318013E03192129C907440803110318AB
:10024800013E03192829CA07450803110318013E6E
:1002580003192F29CB075308C200C301C401C501E4
:100268004208CE07430803110318013E03193D292C
:10027800CF07440803110318013E03194429D00786
:10028800450803110318013E03194B29D10708300B
:10029800C2000310C80DC90DCA0DCB0DC20B4D29E4
:1002A8003B08C2004208F0003E080A128A15BD2425
:1002B8000A128A11710883120313D3007008D2003E
:1002C8005208C2005308C300C401C5014208C80748
:1002D800430803110318013E03197329C907440889
:1002E80003110318013E03197A29CA0745080311A7
:1002F8000318013E03198129CB073A08C2004208B6
:10030800F0003F080A128A15BD240A128A117108E2
:1003180083120313D3007008D2005208C200530896
:10032800C300C401C5014208C807430803110318E4
:10033800013E0319A029C907440803110318013E07
:100348000319A729CA07450803110318013E031911
:10035800AE29CB070830C2000310C80DC90DCA0D5D
:10036800CB0DC20BB0293A08C2004208F0003E0883
:100378000A128A15BD240A128A11710883120313FE
:10038800D3007008D2005208C2005308C300C40149
:10039800C5014208C807430803110318013E0319A1
:1003A800D629C907440803110318013E0319DD299A
:1003B800CA07450803110318013E0319E429CB07AE
:1003C8003B08C2004208F00040080A128A15BD2402
:1003D8000A128A11710883120313D3007008D2001D
:1003E8005208C2005308C300C401C5014208CE0721
:1003F800430803110318013E0319032ACF074408D1
:1004080003110318013E03190A2AD00745080311EE
:100418000318013E0319112AD1073C08C2004208FB
:10042800F0003F080A128A15BD240A128A117108C1
:1004380083120313D3007008D2005208C200530875
:10044800C300C401C5014208CE07430803110318BD
:10045800013E0319302ACF07440803110318013E4F
:100468000319372AD007450803110318013E031959
:100478003E2AD1073C08C2004208F00040080A1290
:100488008A15BD240A128A11710883120313D30036
:100498007008D2005208C2005308C300C401C50145
:1004A80008300310C20DC30DC40DC50DFF3E031D5A
:1004B800552A4208CE07430803110318013E0319C1
:1004C800662ACF07440803110318013E03196D2A51
:1004D800D007450803110318013E0319742AD107F0
:1004E8004808C2004908C3004A08C4004B08C500B0
:1004F80018300310C50CC40CC30CC20CFF3E031DFE
:100508007D2A4208CE07430803110318013E031948
:100518008E2ACF07440803110318013E0319952AB0
:10052800D007450803110318013E03199C2AD10777
:100538000830C2000310C80DC90DCA0DCB0DC20B7F
:100548009E2A4D084C07C200C301C30D4208823ED3
:10055800D20043080318013EFF3ED300D02A0130E1
:10056800C2000310CE0DCF0DD00DD10DC20BB52A90
:10057800CB1FBF2AC02AC12A4E140130C200031063
:10058800C80DC90DCA0DCB0DC20BC32AFF30D20747
:100598000318D30AFF30D307D01FD32AD42AB32A8B
:1005A800CC01CB1FD82AD92AF52AFF304805C2002A
:1005B800FF304905C300FF304A05C4007F304B05B2
:1005C800C50045084404430442040319EC2AED2AF3
:1005D800F02ACC01CC0AF52A4E1CF32AF42AF52A73
:1005E800ED2A4C080319F92AFA2A2B2B0130CE07D9
:1005F800003003180130CF07003003180130D0074E
:10060800003003180130D107511C0B2B0C2B2B2B5E
:100618004E08C2004F08C3005008C4005108C50066
:100628000130C600450DC50CC40CC30CC20CC60B6A
:10063800162B4508D1004408D0004308CF004208D3
:10064800CE000130D2070318D30A0030D30753086D
:10065800803AFF0080307F02031D342BFF305202A6
:10066800031C372B382B432B7F3083120313D10005
:100678008030D0000030CF000030CE00782B8312BD
:1006880003135308803AFF0080307F02031D4E2B6E
:10069800013052020318512B522B5E2B003083126B
:1006A8000313D1000030D0000030CF000030CE005E
:1006B800C701782B831203135208C2004208CD00E9
:1006C800FF30CE05FF30CF057F30D0050030D10593
:1006D8004D1C6F2B702B712BD0174D08C2000310C7
:1006E800420CC3004308D1004708C2004208D104A5
:1006F8005108BD005008BC004F08BB004E08BA00A6
:1007080008008312031357088039DC005C08E400F2
:100718005708DC005C07DD005D08E600D61F952B56
:10072800962B972B6614660803199B2B9C2BAC2BD6
:10073800660A031DA02BA12BA92B0030D70000307F
:10074800D6000030D5000030D400D617D701B42B1E
:100758000030D7000030D6000030D5000030D4007B
:100768005B088039DC005C08E5006508640603194D
:10077800BE2BBF2BC02B64175B08DC005C07DD00B9
:100788005D08E500DA1FC92BCA2BCB2B6514650859
:100798000319CF2BD02BE02B650A031DD42BD52BA7
:1007A800DD2B0030DB000030DA000030D9000030EB
:1007B800D800DA17DB01E82B0030DB000030DA0064
:1007C8000030D9000030D800660865020318ED2B08
:1007D800EE2B322C641FF12BF22BF62B8030DC0031
:1007E8005C08E4066608DC005C08E7006508DC00D5
:1007F8005C08E6006708DC005C08E5005408DC00DB
:100808005C08E7005808DC005C08D4006708DC00D6
:100818005C08D8005508DC005C08E7005908DC00D3
:100828005C08D5006708DC005C08D9005608DC00C5
:100838005C08E7005A08DC005C08D6006708DC00A2
:100848005C08DA005708DC005C08E7005B08DC009D
:100858005C08D7006708DC005C08DB00E701650876
:10086800DC00DD015D08DF0066085C02DE00031CB9
:10087800DF035F08803AFF0080307F02031D462CAB
:100888001A305E02031C492C4A2C872C831203134E
:100898005708560455045404031D532C552C013095
:1008A800562C0030DC005C08E7000030D700003030
:1008B800D6000030D5000030D4006508DC005C08A4
:1008C800E6008F2C671C692C6A2C732C6708DC00E7
:1008D80003105C0C0138DD005D08E700752C03107F
:1008E800E70C541C782C792C7A2CE7170130DC00A3
:1008F800570DD70CD60CD50CD40CDC0B7C2C013046
:10090800DC005C08E6078312031365086602031C13
:100918008E2C8F2C662C641B922C932CDE2C660854
:10092800031D972C982CA12C0030D7000030D6003E
:100938000030D5000030D4000C2E5808D4075908D0
:1009480003110318013E0319AA2CD5075A080311ED
:100958000318013E0319B12CD6075B0803110318CD
:10096800013E0319B82CD707571CBB2CBC2C922D61
:10097800671CBF2CC02CC92C6708DC0003105C0C5A
:100988000138DD005D08E700CB2C0310E70C541C90
:10099800CE2CCF2CD02CE7170130DC00570DD70C0C
:1009A800D60CD50CD40CDC0BD22C0130DC005C0846
:1009B800E607922D5708803AFF005B08803A7F02CD
:1009C800031DF02C5A085602031DF02C5908550235
:1009D800031DF02C580854020318F32CF42C4C2D4A
:1009E800FF30DC00FF30DD00FF30DE00FF30DF00CD
:1009F8005808E0005908E1005A08E2005B08E300E3
:100A08005408E0025508031C550F0B2D0C2DE1026C
:100A18005608031C560F112D122DE2025708031C0D
:100A2800570F172D182DE3026008DC07610803181B
:100A3800610F1F2D202DDD0762080318620F252D79
:100A4800262DDE0763080318630ADF075F08D7004F
:100A58005E08D6005D08D5005C08D4008030DC0054
:100A68005C08E406E709E70A6708031D3C2D3D2DED
:100A78005A2D0130D407003003180130D507003053
:100A880003180130D607003003180130D7075A2D54
:100A98005808D4025908031C590FD5025A08031CD8
:100AA8005A0FD6025B08031C5B0FD702570856047F
:100AB80055045404031D612D622D8E2D6708031DF6
:100AC800662D672D8E2D0030D7000030D6000030FF
:100AD800D5000030D4000C2E0130DC000310D40DFA
:100AE800D50DD60DD70DDC0B722DE71F7C2D7D2D76
:100AF8007E2D5414671C812D822D852D0314E70D3E
:100B0800872D0310E70D660803198B2D8C2D8E2D6C
:100B18000130E602D61F912D922D702DE501E71FB9
:100B2800962D972DA52D67087F3903199C2D9D2D8E
:100B3800A02DE501E50AA52D541CA32DA42DA52D56
:100B48009D2D65080319A92DAA2DDE2D0130D40786
:100B5800003003180130D507003003180130D607DC
:100B6800003003180130D707571CBB2DBC2DDE2DD4
:100B78005408DC005508DD005608DE005708DF0081
:100B88000130E0005F0DDF0CDE0CDD0CDC0CE00B4F
:100B9800C62D5F08D7005E08D6005D08D5005C0842
:100BA800D400660A0319D92DDA2DDE2D0130DC00B8
:100BB8005C08E607660A0319E22DE32DE82D6608AE
:100BC800031DE72DE82DF62D0030D7000030D600A4
:100BD8000030D5000030D4006608031DF42DF52D33
:100BE800F62DE401661CF92DFA2DFC2DD617002EE2
:100BF8007F30DC005C08D6056608DC0003105C0C5E
:100C0800DD005D08D700E41F0A2E0B2E0C2ED71727
:100C180008008312031327088039A8002808B100A8
:100C28002708A8002807A9002908B800A61F1D2E14
:100C38001E2E1F2E381438080319232E242E342E66
:100C4800380A031D282E292E312E0030A700003027
:100C5800A6000030A5000030A400A617A7013C2E6E
:100C68000030A7000030A6000030A5000030A40026
:100C780023088039A8002808B1062308A8002807F7
:100C8800A9002908B900A21F4A2E4B2E4C2E391450
:100C980039080319502E512E612E390A031D552E7D
:100CA800562E5E2E0030A3000030A2000030A100B6
:100CB8000030A000A217A301692E0030A300003065
:100CC800A2000030A1000030A00023082204210463
:100CD8002004031D702E712E8A2E0030A7000030CC
:100CE800A6000030A5000030A4008030A6047F30A4
:100CF800A7043108A8002808A7042708A300260885
:100D0800A2002508A1002408A000E92F3808031D27
:100D18008E2E8F2E982E0030A3000030A2000030B7
:100D2800A1000030A000E92F3808A800A90129086F
:100D3800AB0039082802AA00031CAB032A087F3E2F
:100D4800B2002B080318013E003EB3002708B0008C
:100D58002608AF002508AE002408AD000030A70023
:100D68000030A6000030A5000030A4000030B70015
:100D78000030B6000030B5000030B400B9010E2FC5
:100D880039080319C82EC92EE92E0130A80003100E
:100D9800AD0DAE0DAF0DB00DA80BCB2E0130A800D8
:100DA8000310A40DA50DA60DA70DA80BD42EB71FD3
:100DB800DE2EDF2EE02E24140130A8000310B40D1F
:100DC800B50DB60DB70DA80BE22E23083002031D92
:100DD800F72E22082F02031DF72E21082E02031DCD
:100DE800F72E20082D02031CFA2EFB2E0A2F371788
:100DF8002008AD022108031C210FAE022208031CA3
:100E0800220FAF022308031C230FB0020130A800F1
:100E18002808B9071A303902031C132F142FC42EBF
:100E280030082F042E042D0403191B2F1C2F3B2FD1
:100E380034143B2F0130A8000310A40DA50DA60DF6
:100E4800A70DA80B202FB71F2A2F2B2F2C2F2414C8
:100E58000130A8000310B40DB50DB60DB70DA80BE1
:100E68002E2FFF30B2070318B30AFF30B307A61FAF
:100E78003E2F3F2F1E2FB901B71F432F442F602F3E
:100E8800FF303405A800FF303505A900FF303605CE
:100E9800AA007F303705AB002B082A042904280450
:100EA8000319572F582F5B2FB901B90A602F241C3B
:100EB8005E2F5F2F602F582F39080319642F652F75
:100EC800962F0130A407003003180130A507003021
:100ED80003180130A607003003180130A707271CA4
:100EE800762F772F962F2408A8002508A900260812
:100EF800AA002708AB000130AC002B0DAB0CAA0CE4
:100F0800A90CA80CAC0B812F2B08A7002A08A60057
:100F18002908A5002808A4000130B2070318B30A5D
:100F28000030B3073308803AFF0080307F02031D8A
:100F38009F2FFF303202031CA22FA32FB12FFF30A7
:100F480083120313B2000030B3000030A700003052
:100F5800A6000030A5000030A40083120313330854
:100F6800803AFF0080307F02031DBC2F013032021F
:100F78000318BF2FC02FCD2F83120313B201B30163
:100F88000030A7000030A6000030A5000030A40003
:100F9800B101831203133208A8002808B800381CCE
:100FA800D62FD72FD92FA617DD2F7F30A8002808D6
:100FB800A6053808A8000310280CA9002908A700CE
:100FC8003108A8002808A704812E08000A128A15EB
:0E0FD800E4240A128A11EF2F0A128A1110283F
:10197A00F800F401F5017008F200F3017208F600AC
:10198A007308F700781CCA2CCB2CD12C7608F407E4
:10199A000318F50A7708F50701300310F60DF70D5D
:1019AA00FF3E031DD22C0310F80C7808031DDE2C11
:1019BA00DF2CC72C7508F1007408F00008000F30FE
:1019CA0083160317880089010F30831603138500D5
:1019DA0083120313850183160313860183120313EB
:1019EA008601831603138801831203138801831661
:1019FA0003130F088F3930388F000F141812181577
:101A0A008316031787150C308316031399009A015E
:101A1A008312031398178316031318139816831245
:101A2A00031318168316031307159B3092008312AB
:101A3A00031397013F3097051708F0390C389700C0
:101A4A00073095001708CF392038970083160313FB
:101A5A008714831203139D011D08F0390C389D0069
:101A6A0007309B001D129D168C100330920412152C
:101A7A008C1C402D412D3D2D8C108316031307110C
:101A8A0087108312031387010B178B17831603130F
:101A9A008C1608000310831203136A0D6B0D83164C
:101AAA000313A000200883120313ED006D08031D21
:101ABA005F2D602D692D0030EB000030EA00003008
:101ACA00E9000030E800EA2D680883160313A00035
:101ADA0083120313690883160313A10083120313E5
:101AEA006A0883160313A200831203136B08831672
:101AFA000313A3001F300310A30CA20CA10CA00C0B
:101B0A00FF3E031D802D2008A4002408831203131E
:101B1A00EC00EA17FF30E805FF30E905FF30EA0577
:101B2A000030EB059630ED02ED1F9C2D9D2DBB2D4F
:101B3A006D08803A973E0318A32DA42DA52D602D7C
:101B4A0001300310EB0CEA0CE90CE80CFF3E031D14
:101B5A00A62D013083160313A00020088312031355
:101B6A00ED07031DB92DBA2DA52DDA2D20306D02F2
:101B7A00031CC02DC12DD52D602D013083160313F2
:101B8A00A000031083120313E80DE90DEA0DEB0D13
:101B9A0083160313A00BC62D013083120313ED0223
:101BAA006D08031DD92DDA2DC22D6C080319DE2DFF
:101BBA00DF2DEA2DE809E909EA09EB09E80A031920
:101BCA00E90A0319EA0A0319EB0A08008312031344
:101BDA008C1EF02DF12D892E1A0883160313AB00E3
:101BEA002B08B70037080139AB002B08B4003403BF
:101BFA00031D002E012E4D2EA501FF30AB002B0830
:101C0A00A6000F30A7000030A8004B30A900003012
:101C1A00AA0037080A128A1594260A128A15831608
:101C2A0003132508AC002C08B3003308AB000230BC
:101C3A000310AB0CFF3E031D1D2E2B08831203134A
:101C4A009B008316031333080139AB00AB0E8312D2
:101C5A0003131D08831603132B06EF392B06831271
:101C6A0003139D00831603133308AB0003102B0CD8
:101C7A000139AC00AC0EAC0D831203131D08831698
:101C8A0003132C06DF392C06831203139D00892EB9
:101C9A003408031D512E522E892EA501FF30AB00A8
:101CAA002B08A6000F30A7000030A8004B30A9006F
:101CBA000030AA0037080A128A1594260A128A15D1
:101CCA00831603132508AC002C08B2003208AB00B7
:101CDA0002300310AB0CFF3E031D6E2E2B0883123D
:101CEA00031395008316031332080339AB00AB0EB6
:101CFA00831203131708831603132B06CF392B06F7
:101D0A00831203139700892E831603132F08FF00EB
:101D1A002E088A002D0E8300FE0E7E0E0900831205
:101D2A000313EE00831603132708F0002808F100B6
:101D3A00F201F30100300A128A1546270A128A159F
:101D4A00730883120313DB007208DA007108D900E2
:101D5A007008D8008316031327082902F000280800
:101D6A00031C280A2A02F100F201F30100300A12C8
:101D7A008A1546270A128A15730883120313A700C5
:101D8A007208A6007108A5007008A4008316031340
:101D9A0025082602F000F101031CF103F201F11BF0
:101DAA00F2037208F30001300A128A1546270A1252
:101DBA008A15730883120313A3007208A20071081C
:101DCA00A1007008A0000A128A110D260A128A15AB
:101DDA00831203132308C1002208C0002108BF0090
:101DEA002008BE00831603132508831203136E020C
:101DFA00F000F101031CF103F201F11BF203720876
:101E0A00F30001300A128A1546270A128A15730846
:101E1A0083120313BD007208BC007108BB0070086E
:101E2A00BA000A128A1124200A128A15831203138D
:101E3A003D08D7003C08D6003B08D5003A08D40034
:101E4A000A128A1185230A128A1583120313570864
:101E5A00EB005608EA005508E9005408E8000A129F
:101E6A008A154F250A128A158312031369088316E5
:101E7A000313A60083120313680883160313A5002D
:101E8A000800F800780803194B2F4C2F602FF31F16
:101E9A004F2F502F602F7009FA007109FB00720949
:101EAA00FC007309FD00FA0A0319FB0A0319FC0A6C
:101EBA000319FD0A682F7308FD007208FC007108F7
:101ECA00FB007008FA007308720471047004031DA1
:101EDA006F2F702F792F0030F3000030F20000309E
:101EEA00F1000030F000FF2F9630F4007408F9007A
:101EFA008B2F0130F4007408F90701300310FD0C30
:101F0A00FC0CFB0CFA0CFF3E031D832FFE307D05F3
:101F1A00031D902F912F7E2FAD2F0130F4007408EE
:101F2A00F9070130FA07003003180130FB070030C7
:101F3A0003180130FC07003003180130FD07013097
:101F4A000310FD0CFC0CFB0CFA0CFF3E031DA52F25
:101F5A00FF307D05031DB22FB32F922FBF2F013003
:101F6A00F9020130F4000310FA0DFB0DFC0DFD0D12
:101F7A00F40BB82FFC1BC22FC32FC92F02307902D2
:101F8A000318C82FC92FB42F7918CC2FCD2FD52FCE
:101F9A00FF30FA05FF30FB057F30FC05FF30FD05F9
:101FAA000310F90C7908F400F501F601F70118306D
:101FBA000310F40DF50DF60DF70DFF3E031DDD2F91
:101FCA007408FA047508FB047608FC047708FD0413
:101FDA0078080319F12FF22FF72FF31FF52FF62F99
:101FEA00F72FFD177D08F3007C08F2007B08F1004B
:061FFA007A08F000080067
:08400000FF3FFF3FFF3FFF3FC0
:04400E00D420FF3F7C
:00000001FF
